:020000040800F2
:100000000000022029D60008ED02000871D6000881
:10001000550300085D0300086503000800000000A8
:10002000000000000000000000000000A513000810
:100030006D0300080000000095150008F915000880
:1000400071D6000871D6000871D6000871D6000874
:1000500071D6000871D60008910A000871D6000810
:1000600071D6000871D6000871D6000871D6000854
:1000700071D6000871D6000871D6000871D6000844
:1000800071D6000871D6000871D6000871D6000834
:1000900071D6000871D6000871D6000871D6000824
:1000A00071D6000871D6000871D6000871D6000814
:1000B00071D6000871D6000871D6000871D6000804
:1000C00071D6000871D6000871D6000871D60008F4
:1000D000A50A000871D600087D0A000871D600083C
:1000E00071D6000871D6000871D6000871D60008D4
:1000F00071D6000871D6000871D6000871D60008C4
:1001000071D6000871D6000871D6000871D60008B3
:1001100071D6000871D6000871D6000871D60008A3
:1001200071D6000871D6000871D6000871D6000893
:1001300071D6000871D6000871D6000871D6000883
:1001400071D6000871D6000871D6000871D6000873
:1001500071D6000871D6000871D6000871D6000863
:1001600071D6000871D6000871D6000871D6000853
:1001700071D6000871D6000871D6000871D6000843
:0801800071D6000871D60008D9
:1001C000044B05481B1A062B02D9044B03B11847F0
:1001D000704700BF93090020900900200000000034
:1001E00005490648091A891001EBD171491002D05E
:1001F000034B03B118477047900900209009002075
:100200000000000010B5064C237843B9FFF7D8FF73
:10021000044B13B10448AFF300800123237010BDD9
:100220009009002000000000E839010808B5084BDB
:100230001BB108490848AFF300800848036813B9A8
:10024000BDE80840CCE7064B002BF9D09847F7E70C
:100250000000000094090020E83901088C09002002
:1002600000000000154B002B08BF134B9D46A3F563
:10027000803A00218B460F461348144A121A0DF09B
:100280007FFB0F4B002B00D098470E4B002B00D06C
:1002900098470020002104000D000D48002802D0DE
:1002A0000C480FF083F80DF011FB2000290000F03E
:1002B000EFFA0DF0FBFA00BF00000800000000009C
:1002C00000000000000000009009002070380120AC
:1002D000ADF30008C1060108203A01080000002023
:1002E0008C090020900900207038012080B400AFF4
:1002F00000BFBD465DF8047B704700BF80B48BB083
:1003000000AF78607B681B687B627B685B683B62E0
:100310007B689B68FB617B68DB68BB617B681B69F2
:100320007B617B685B693B617B689B69FB607B6889
:10033000DB69BB60FEE700BF1EF0040F0CBFEFF3EC
:100340000880EFF309808169004A1047FD02000828
:1003500000BF00BF80B400AFFEE700BF80B400AFB5
:10036000FEE700BF80B400AFFEE700BF80B400AF7F
:1003700000BFBD465DF8047B704700BF80B500AF8D
:10038000164A164B1B6843F001031360134B0022FF
:100390009A60124A114B1B6823F0847323F4803354
:1003A00013600E4B0E4A5A600C4A0C4B1B6823F428
:1003B00080231360094B0022DA6000F093F8094BA8
:1003C0004FF000629A60074A064BD3F8883043F436
:1003D0007003C2F8883000BF80BD00BF0038024003
:1003E0001030002400ED00E080B487B000AF00239F
:1003F0003B6100237B610223FB600023BB6002237F
:100400007B60334B9B6803F00C033B613B69042B1F
:1004100007D0082B09D0002B3FD12E4B2E4A1A6053
:100420003FE02C4B2D4A1A603BE0294B5B6803F4FC
:1004300080039B0DBB60264B5B6803F03F037B6032
:10044000BB68002B0DD0254A7B68B2FBF3F2204B32
:10045000596847F6C0730B409B0903FB02F37B61AD
:100460000CE01D4A7B68B2FBF3F2194B596847F662
:10047000C0730B409B0903FB02F37B61144B5B6869
:1004800003F440331B0C01335B00FB607A69FB68AB
:10049000B2FBF3F30F4A136003E00E4B0E4A1A60EF
:1004A00000BF0B4B9B6803F0F0031B090C4AD35CA5
:1004B000DBB23B61074B1A683B6922FA03F3054A3A
:1004C000136000BF1C37BD465DF8047B704700BF5A
:1004D00000380240040000200024F40000127A00DA
:1004E0000800002080B483B000AF00237B600023AD
:1004F0003B60414A404B1B6843F4803313603E4BE2
:100500001B6803F400333B607B6801337B603B680E
:10051000002B03D17B68B3F5A06FF0D1364B1B687D
:1005200003F40033002B02D001233B6001E00023E1
:100530003B603B68012B42D12F4A2F4B1B6C43F091
:10054000805313642D4A2D4B1B6843F48043136082
:10055000294A294B9B689360274A274B9B6843F4A1
:1005600000439360244A244B9B6843F4A053936058
:10057000214B234A5A60204A1F4B1B6843F080736B
:10058000136000BF1C4B1B6803F00073002BF9D0F5
:100590001C4B40F205621A60174A174B9B6823F008
:1005A00003039360144A144B9B6843F00203936067
:1005B00000BF114B9B6803F00C03082BF9D10E4AC6
:1005C0000D4B9B6823F4000393600B4B0E4AC3F85A
:1005D0008420094A084B1B6843F08063136000BF06
:1005E000054B1B6803F00063002BF9D000BF0C37EC
:1005F000BD465DF8047B7047003802400070004043
:1006000008544007003C02400030005080B483B0E2
:1006100000AF7860134BDB6803F08073002B1AD0B7
:100620004FF06043D3F8803E03F00103002B12D05B
:100630004FF06043D3F8003E03F00103002B0AD0D3
:1006400000BF4FF060431B68002BFAD04FF06043AF
:100650007A68D2B21A707B6818460C37BD465DF8CE
:10066000047B7047F0ED00E080B485B000AFF86027
:10067000B9607A604FF0FF3318461437BD465DF815
:10068000047B704780B584B000AFF860B9607A60D1
:100690000DF006F90246162313604FF0FF3318469B
:1006A0001037BD4680BD00BF80B485B000AFF86094
:1006B000B9607A60002318461437BD465DF8047BA4
:1006C000704700BF80B586B000AFF860B9607A604F
:1006D000BB68002B01D1002322E000237B611AE0DC
:1006E00000BF114B1B889BB203F04003002BF8D0D6
:1006F0007B69BA6813441B789BB219460A480BF011
:100700006DFB7B69BA6813441B781846FFF77EFFC0
:100710007B6901337B617A697B689A42E0DB7B68A5
:1007200018461837BD4680BD0044004080B483B0F1
:1007300000AF7860002318460C37BD465DF8047B97
:10074000704700BF80B584B000AF7860114B1B6864
:10075000002B02D10F4B104A1A600E4B1B68FB6036
:100760000C4B1A687B6813446A46934207D90DF014
:1007700097F802460C2313604FF0FF3306E0054B59
:100780001A687B681344034A1360FB6818461037E5
:10079000BD4680BDAC0900207038012080B582B014
:1007A00000AF786039603C22002138680DF0E8F82D
:1007B0003B684FF400525A60002318460837BD4684
:1007C00080BD00BF80B483B000AF786001231846BD
:1007D0000C37BD465DF8047B704700BF80B582B022
:1007E00000AF786039600DF05BF8024616231360A5
:1007F0004FF0FF3318460837BD4680BD80B400AFC8
:1008000001231846BD465DF8047B704780B584B06F
:1008100000AF78604FF47A73FB6002F0D7FD0346B7
:10082000BB60054800F0EAFA07F108034FF47A715B
:10083000184602F067F9F4E7E409002080B582B0B9
:1008400000AF78600F4B1B6819460F480DF0F6F8A3
:100850001E2204210D480CF00DFF322205210B4809
:100860000CF008FF012109480CF060FF0221074845
:100870000CF05CFF002105480CF058FF00BF083762
:10088000BD4680BDB0090020983701084C0A002001
:1008900080B586B004AF4FF4407005F0FDF800223B
:1008A0000121284800F0AAFC00220221264800F07D
:1008B0004FF900220021254800F0F6FA244800F004
:1008C00001FA244800F0FEF9234800F0FBF9234820
:1008D00000F0F8F9224800F079FA1A4800F0A2FC7A
:1008E0001A4800F0F7FA00221E49174800F0A6F94E
:1008F000154800F041F900230393002302930023DD
:10090000019301230093002382221749174801F025
:10091000A5FF78607B68012B05D115480DF0D4F850
:1009200002F054FC02E013480DF0CEF80121022041
:1009300005F03EF930BF104B1B6801330E4A1360BF
:10094000F8E700BF100A0020F00900204C0A002040
:10095000B4090020C0090020CC090020D8090020DB
:10096000E40900203D080008B83701080D08000818
:10097000C0370108D0370108B009002080B582B027
:1009800000AF786039607B68012B25D13B684FF65A
:10099000FF72934220D12249224800F075F9224982
:1009A000224800F071F92249224800F06DF92249ED
:1009B000224800F069F90A221A49214800F0E2F9B8
:1009C0002049214800F0A4F82049214800F0F0FB1C
:1009D0002049214800F044FA7B68002B1CD13B6879
:1009E0004FF6FF72934217D11B4800F051FA184896
:1009F00000F0F6FB144800F09FF8114800F0DAF917
:100A00000E4800F053F90B4800F050F9074800F089
:100A10004DF9044800F04AF900BF0837BD4680BDD3
:100A200018000020B409002024000020C009002084
:100A30003C000020CC09002030000020D809002014
:100A4000E409002048000020F00900205C0000209C
:100A5000100A0020840000204C0A002080B500AF5E
:100A60004FF6FF710120FFF789FF80BD80B500AF11
:100A70004FF6FF710020FFF781FF80BD80B500AF0A
:100A8000024800F063FB00BF80BD00BF100A0020D9
:100A900080B500AF024800F0E3F800BF80BD00BFA2
:100AA000F009002080B500AF02480CF0ADFE00BF99
:100AB00080BD00BF4C0A002080B500AF00F044F9B3
:100AC00000BF80BD80B483B000AF4FF0500383F30C
:100AD0001188BFF36F8FBFF34F8F7B60FEE700BFBE
:100AE00080B400AF00BFBD465DF8047B704700BF17
:100AF00080B485B000AF786039604FF0500383F365
:100B00001188BFF36F8FBFF34F8FFB60FEE700BF0D
:100B1000B0B483B000AF786039607A683B6814463F
:100B20001D460FCD0FC42B6823607B6818460C3719
:100B3000BD46B0BC704700BF80B483B000AF7860E2
:100B40007B6818460C37BD465DF8047B704700BFD4
:100B500080B483B000AF78600B46FB701346BB7067
:100B60007B68FA781A757B68BA785A7500BF0C37BB
:100B7000BD465DF8047B704780B588B000AF7860F3
:100B80007B689B680121184608F06EFA01214FF43A
:100B9000804008F0E9FA00233B770023FB777B686D
:100BA0005B68BB617B681B6807F118021146184639
:100BB00007F0D4F87B681A7C7B685B7C194610468A
:100BC00004F0EEFE7B68DB683B6100233B75082385
:100BD0007B750123BB7507F11003184606F052FB25
:100BE0007B689B7CDBB23B737B681B7D7B737B6884
:100BF0005B7DBB730123FB7307F10C03184604F004
:100C00005FFF00BF2037BD4680BD00BF80B582B00A
:100C100000AF78607B681A687B685B689BB2194696
:100C2000104607F065F90346002B14BF012300238B
:100C3000DBB218460837BD4680BD00BF80B485B022
:100C400000AFF860B9607A60FB68BA689A61FB68C7
:100C50007A68DA6100BF1437BD465DF8047B7047DF
:100C600080B582B000AF78607B68DB68184606F01C
:100C7000F1FB7B689B697A68D2691046984700BF90
:100C80000837BD4680BD00BF80B483B000AF786038
:100C900039607B683A6807CA83E807007B681846B2
:100CA0000C37BD465DF8047B704700BF80B483B04D
:100CB00000AF78607B6818460C37BD465DF8047B52
:100CC000704700BF80B584B000AF78607B689B68D8
:100CD0000121184608F0C8F97B685B68BB600123F6
:100CE0003B730023BB730123FB7302237B737B687D
:100CF0001B6807F108021146184607F02FF800BFDD
:100D00001037BD4680BD00BF80B483B000AF7860AF
:100D10007B681B687A68526892B21A8300BF0C37EE
:100D2000BD465DF8047B704780B483B000AF786047
:100D30007B681B687A68526892B25A8300BF0C378E
:100D4000BD465DF8047B704780B582B000AF0023DC
:100D50007B600A4B1B687A689A420ADA084A7B6809
:100D600052F82330184600F059F87B6801337B6055
:100D7000EFE700BF0837BD4680BD00BF940A0020E2
:100D8000800A002080B485B000AFF860B9607A6056
:100D9000FB68BA681A60FB687A685A60FB684FF0B3
:100DA000FF329A60FB6818461437BD465DF8047B35
:100DB000704700BF80B483B000AF78607B6818468E
:100DC0000C37BD465DF8047B704700BF80B483B02C
:100DD00000AF7860074B1B685A1C06490A60064939
:100DE0007A6841F8232000BF0C37BD465DF8047BCC
:100DF000704700BF940A0020800A002080B582B0AE
:100E000000AF78607B6800229A607B681B68184698
:100E1000FFF77AFF00BF0837BD4680BD80B582B0BE
:100E200000AF78607B689B68B3F1FF3F13D07B68AD
:100E30009B685A1C7B689A607B689A687B685B68D1
:100E40009A4208DD7B684FF0FF329A607B681B682E
:100E50001846FFF769FF00BF0837BD4680BD00BFD9
:100E6000B0B483B000AF786039607A683B681446EC
:100E70001D460FCD0FC40FCD0FC495E80F0084E8B9
:100E80000F007B6818460C37BD46B0BC704700BFEA
:100E900080B483B000AF78607B6818460C37BD46DD
:100EA0005DF8047B704700BF80B483B000AF78600A
:100EB0000B46FB701346BB707B68FA7883F83120D1
:100EC0007B68BA7883F8322000BF0C37BD465DF8E6
:100ED000047B704780B58AB000AF78607B685B6A3E
:100EE0007A68926A0121104698477B681B6A012143
:100EF000184608F0B9F87B6858687B681B7F99B280
:100F00007B6893F82C301A4607F09CF87B68586889
:100F10007B685B7F99B27B6893F82C301A4607F0A8
:100F200091F87B6858687B689B7F99B27B6893F8DF
:100F30002C301A4607F086F87B681A697B685B6973
:100F40001A437B689B6913433B62022387F8243072
:100F5000022387F82530002387F82630022387F8FC
:100F600027307B685B6807F120021146184606F0BF
:100F7000F5FE7B68DB683B62012387F8243002239F
:100F800087F82530002387F82630012387F827309B
:100F90007B681B6807F120021146184606F0DEFE4A
:100FA00007F10C03184608F033FC0023BB814FF413
:100FB0008273FB8100233B8202237B820123BB825D
:100FC0004FF40073FB8208233B8300237B837B6801
:100FD0009B6807F10C021146184608F0FBFA7B6883
:100FE0001A687B68DB689BB21946104606F0D0FF92
:100FF0007B6893F82D30DBB23B727B6893F831301D
:101000007B727B6893F83230BB720123FB7207F16D
:101010000803184604F054FD7B689B680122602198
:10102000184608F001FE7B689B680121184608F00D
:1010300031FC00BF2837BD4680BD00BF80B485B0FD
:1010400000AF78607B689B691B889BB2FB607B6804
:101050009B699B889BB2FB6000BF1437BD465DF85F
:10106000047B704780B582B000AF78607B68012256
:10107000DA707B689B69012240F2277118460BF0F9
:1010800055F800BF0837BD4680BD00BF80B582B0AF
:1010900000AF78607B689B69002240F22771184698
:1010A0000BF044F87B680022DA7000BF0837BD46B9
:1010B00080BD00BF80B485B000AFF860B9607A60D1
:1010C000FB68BA685A60FB687A689A6000BF143798
:1010D000BD465DF8047B704780B582B000AF786094
:1010E0007B6801229A707B689B69012240F225513E
:1010F00018460BF01BF800BF0837BD4680BD00BF87
:1011000080B582B000AF78607B689B69002240F2B6
:10111000255118460BF00AF87B6800229A7000BF30
:101120000837BD4680BD00BF80B485B000AFF86011
:10113000B9607A60FB68BA68DA60FB687A681A613D
:1011400000BF1437BD465DF8047B704780B582B0A0
:1011500000AF78607B689B78002B07D078680CF034
:1011600089FB0346002B01D0012300E00023002B64
:1011700005D07B68DB687A681269104698477B68FF
:10118000DB78002B07D078680CF05EFB0346002B61
:1011900001D0012300E00023002B05D07B685B68B1
:1011A0007A6892681046984700BF0837BD4680BDF0
:1011B000B0B483B000AF786039607B683A6803F1FF
:1011C000140415460FCD0FC40FCD0FC495E80300CE
:1011D00084E803007B6818460C37BD46B0BC7047F6
:1011E00080B582B000AF78607B689B6918460AF0D2
:1011F000EFFB7B6818460837BD4680BD80B483B0DE
:1012000000AF78600B46FB701346BB707B68FA78C2
:101210001A707B68BA785A7000BF0C37BD465DF80B
:10122000047B704780B58AB000AF78607B68DB6A6A
:101230000121184607F018FF7B6858697B68998C74
:101240007B6893F834301A4606F0FCFE7B685869D8
:101250007B68D98C7B6893F834301A4606F0F2FE2E
:101260007B68DA697B681B6A13433B62022387F859
:101270002430022387F82530002387F82630012305
:1012800087F827307B685B6907F120021146184612
:1012900006F064FD7B689B6A7A68126B0121104638
:1012A00098477B689B6B3B610023BB820023FB82DA
:1012B00000233B830C237B830023BB837B689B69D8
:1012C00007F11002114618460AF0ECFB7B6893F810
:1012D00035303B737B681B787B737B685B78BB73B3
:1012E0000123FB7307F10C03184604F0E9FB7B684C
:1012F0009B69012118460AF0F1FC00BF2837BD4662
:1013000080BD00BF80B485B000AFF860B9607A607E
:10131000FB68043BFB60FB684FF080721A60FB685F
:10132000043BFB60BA68FB681A60FB68043BFB6027
:101330000C4AFB681A60FB68143BFB607A68FB6828
:101340001A60FB68043BFB60FB686FF002021A60E6
:10135000FB68203BFB60FB6818461437BD465DF810
:10136000047B70476913000880B483B000AF0C4B56
:101370001B68B3F1FF3F09D04FF0500383F311888E
:10138000BFF36F8FBFF34F8F3B60FEE74FF050030B
:1013900083F31188BFF36F8FBFF34F8F7B60FEE73E
:1013A000B4000020064B19680868B0E8F04F80F3DD
:1013B0000988BFF36F8F4FF0000080F311887047EA
:1013C000A00A002000BF00BFCE480068006880F37C
:1013D000088862B661B6BFF34F8FBFF36F8F00DF2F
:1013E00000BF00BF80B584B000AF2C4BFB60FB6832
:1013F0001B78DBB2BB60FB68FF221A70FB681B78AE
:10140000DBB2FB71FB79DBB203F05003DAB2244BA1
:101410001A70244B07221A6009E0224B1B68013B1B
:10142000204A1360FB79DBB25B00DBB2FB71FB7916
:10143000DBB2DBB25BB2002BEFDB1A4B1B681B028B
:10144000184A1360174B1B6803F4E063154A1360D6
:10145000BB68DAB2FB681A70134A134B1B6843F47B
:1014600070031360104A104B1B6843F07043136005
:1014700000F0E6F80D4B00221A6000F0FDF80C4A6F
:101480000B4B1B6843F040431360FFF79DFFFFF7D2
:101490006BFF002318461037BD4680BD00E400E016
:1014A000980A00209C0A002020ED00E0B4000020F3
:1014B00034EF00E080B483B000AF0A4B1B68B3F593
:1014C0007A7F09D04FF0500383F31188BFF36F8FF9
:1014D000BFF34F8F7B60FEE700BF0C37BD465DF862
:1014E000047B7047B400002080B483B000AF4FF09D
:1014F000500383F31188BFF36F8FBFF34F8F3B60AF
:101500000E4B1B6801330D4A13600C4B1B68012BFB
:101510000ED10B4B1B68DBB2002B09D04FF05003F0
:1015200083F31188BFF36F8FBFF34F8F7B60FEE7AC
:1015300000BF0C37BD465DF8047B7047B400002047
:1015400004ED00E080B483B000AF114B1B68002BAA
:1015500009D14FF0500383F31188BFF36F8FBFF3AE
:101560004F8F3B60FEE70A4B1B68013B084A136044
:10157000074B1B68002B04D100237B607B6883F33F
:10158000118800BF0C37BD465DF8047B704700BF73
:10159000B4000020EFF30980BFF36F8F144B1A687B
:1015A0001EF0100F08BF20ED108A20E9F04F1060E8
:1015B0004DF8043D4FF0500080F31188BFF34F8F7A
:1015C000BFF36F8F02F070F84FF0000080F31188C6
:1015D00008BC19680868B0E8F04F1EF0100F08BF8B
:1015E000B0EC108A80F30988BFF36F8F704700BF9B
:1015F000A00A002000BF00BF80B584B000AFEFF3A9
:1016000011824FF0500383F31188BFF36F8FBFF344
:101610004F8FBA607B6001F081FF0346002B03D03F
:10162000064B4FF080521A600023FB60FB6883F387
:10163000118800BF1037BD4680BD00BF04ED00E03B
:1016400080B400AF084A094B1B680949A1FB03138A
:101650009B09013B1360074B07221A6000BFBD4680
:101660005DF8047B704700BF14E000E00400002038
:10167000D34D621010E000E0DFF88C00016841F407
:1016800070010160704700BF80B485B000AFEFF318
:101690000583FB60FB680F2B13D9164AFB681344C4
:1016A0001B78FB72144B1B78FA7A9A4209D24FF0DE
:1016B000500383F31188BFF36F8FBFF34F8F3B60ED
:1016C000FEE70E4B1B6803F4E0620D4B1B689A4269
:1016D00009D94FF0500383F31188BFF36F8FBFF325
:1016E0004F8F7B60FEE700BF1437BD465DF8047B7B
:1016F000704700BFF0E300E0980A00200CED00E026
:101700009C0A002008ED00E088ED00E080B483B082
:1017100000AF78607B6803F108027B685A607B68E1
:101720004FF0FF329A607B6803F108027B68DA6051
:101730007B6803F108027B681A617B6800221A60EB
:1017400000BF0C37BD465DF8047B704780B483B0A2
:1017500000AF78607B6800221A6100BF0C37BD467D
:101760005DF8047B704700BF80B485B000AF78603F
:1017700039607B685B68FB603B68FA685A60FB68AD
:101780009A683B689A60FB689B683A685A60FB6895
:101790003A689A603B687A681A617B681B685A1CD1
:1017A0007B681A6000BF1437BD465DF8047B704744
:1017B00080B485B000AF786039603B681B68BB605F
:1017C000BB68B3F1FF3F03D17B681B69FB600CE092
:1017D0007B680833FB6002E0FB685B68FB60FB68CA
:1017E0005B681A68BB689A42F6D9FB685A683B681E
:1017F0005A603B685B683A689A603B68FA689A602E
:10180000FB683A685A603B687A681A617B681B68B3
:101810005A1C7B681A6000BF1437BD465DF8047B14
:10182000704700BF80B485B000AF78607B681B69EB
:10183000FB607B685B687A6892689A607B689B68EB
:101840007A6852685A60FB685A687B689A4203D18A
:101850007B689A68FB685A607B6800221A61FB68A3
:101860001B685A1EFB681A60FB681B681846143711
:10187000BD465DF8047B704780B584B000AF7860EA
:1018800039607B68FB60FB68002B09D14FF0500387
:1018900083F31188BFF36F8FBFF34F8FBB60FEE7F9
:1018A000FFF722FEFB681A68FB68DB6BF968096CBE
:1018B00001FB03F31A44FB685A60FB6800229A6339
:1018C000FB681A68FB689A60FB681A68FB68DB6B48
:1018D000013BF968096C01FB03F31A44FB68DA6009
:1018E000FB684FF0FF325A64FB684FF0FF329A6496
:1018F0003B68002B14D1FB681B69002B1AD0FB68D6
:101900001033184602F044F80346012B12D10D4B58
:101910004FF080521A60BFF34F8FBFF36F8F09E013
:10192000FB6810331846FFF7F1FEFB6824331846B6
:10193000FFF7ECFEFFF706FE012318461037BD4601
:1019400080BD00BF04ED00E080B58AB000AFF86054
:10195000B9601346FB7100233B62FB68002B09D181
:101960004FF0500383F31188BFF36F8FBFF34F8F96
:101970003B61FEE7BB68002B02D100237B6205E0E0
:10198000FB68BA6802FB03F301337B627B6A543362
:10199000184603F0EDFDF861FB69002B1DD0FB69D3
:1019A000BB61BB68002B03D1BB69BA691A6004E054
:1019B000FB6903F15402BB691A60BB69FA68DA6318
:1019C000BB69BA681A640121B869FFF755FFBB69A2
:1019D000FA7983F85020BB693B623B6A002B09D13E
:1019E0004FF0500383F31188BFF36F8FBFF34F8F16
:1019F0007B61FEE73B6A18462837BD4680BD00BFC5
:101A000080B584B000AF0346FB71542003F0B0FDF5
:101A1000F860FB68002B30D0FB6800225A60FB683E
:101A200000221A60FB6800229A60FB680022DA60DC
:101A3000FB6800229A63FB680122DA63FB680022DC
:101A40001A64FB684FF0FF325A64FB684FF0FF32B4
:101A50009A64FB68FA7983F85020FB6810331846C3
:101A6000FFF754FEFB6824331846FFF74FFE0023B0
:101A700000220021F86800F0BDF8FB68002B09D1B6
:101A80004FF0500383F31188BFF36F8FBFF34F8F75
:101A9000BB60FEE7FB6818461037BD4680BD00BF3F
:101AA00090B587B000AF78607B683B613B69002BE5
:101AB00009D14FF0500383F31188BFF36F8FBFF349
:101AC0004F8FFB60FEE73B695C6802F015FB034645
:101AD0009C4211D13B69DB685A1E3B69DA603B6965
:101AE000DB68002B05D1002300220021386900F0BB
:101AF00081F801237B6101E000237B617B6918464B
:101B00001C37BD4690BD00BF90B587B000AF786070
:101B100039607B683B613B69002B09D14FF0500372
:101B200083F31188BFF36F8FBFF34F8FFB60FEE726
:101B30003B695C6802F0E0FA03469C4207D13B69CE
:101B4000DB685A1C3B69DA6001237B610EE00023ED
:101B50003A680021386900F037FA78617B69012B17
:101B600004D13B69DB685A1C3B69DA607B69184623
:101B70001C37BD4690BD00BF80B586B000AF786011
:101B800039607B68002B09D14FF0500383F3118833
:101B9000BFF36F8FBFF34F8FBB60FEE73A687B6880
:101BA0009A4209D94FF0500383F31188BFF36F8F26
:101BB000BFF34F8FFB60FEE7022200217868FFF73A
:101BC000C3FE78617B69002B02D07B693A689A6317
:101BD0007B69002B09D14FF0500383F31188BFF3C9
:101BE0006F8FBFF34F8F3B61FEE77B691846183755
:101BF000BD4680BD80B58EB000AFF860B9607A6038
:101C00003B6000237B63FB683B633B6B002B09D18C
:101C10004FF0500383F31188BFF36F8FBFF34F8FE3
:101C2000FB61FEE7BB68002B03D13B6B1B6C002BF9
:101C300001D1012300E00023002B09D14FF0500314
:101C400083F31188BFF36F8FBFF34F8F3B62FEE7C3
:101C50003B68022B03D13B6BDB6B012B01D10123D2
:101C600000E00023002B09D14FF0500383F31188CB
:101C7000BFF36F8FBFF34F8F7B62FEE702F04CFA2A
:101C80000346002B02D17B68002B01D1012300E029
:101C90000023002B09D14FF0500383F31188BFF3C9
:101CA0006F8FBFF34F8FBB62FEE7FFF71DFC3B6BEF
:101CB0009A6B3B6BDB6B9A4202D33B68022B29D1B8
:101CC0003A68B968386B00F0FFFBF8623B6B5B6AFF
:101CD000002B10D03B6B2433184601F059FE03460D
:101CE000012B13D13C4B4FF080521A60BFF34F8F42
:101CF000BFF36F8F0AE0FB6A002B07D0364B4FF023
:101D000080521A60BFF34F8FBFF36F8FFFF71AFC3B
:101D100001235CE07B68002B03D1FFF713FC002359
:101D200055E07B6B002B06D107F11403184601F038
:101D3000F7FE01237B63FFF705FC01F0A5FAFFF72F
:101D4000D3FB3B6B5B6CB3F1FF3F02D13B6B0022DB
:101D50005A643B6B9B6CB3F1FF3F02D13B6B00229B
:101D60009A64FFF7EFFB3A1D07F11403114618467A
:101D700001F0FAFE0346002B23D1386B00F0BAFCC9
:101D80000346002B17D03B6B10337A681146184678
:101D900001F00AFD386B00F029FC01F083FA0346DC
:101DA000002B82D10C4B4FF080521A60BFF34F8F43
:101DB000BFF36F8F79E7386B00F018FC01F072FA0F
:101DC00073E7386B00F012FC01F06CFA0023184640
:101DD0003837BD4680BD00BF04ED00E080B58EB051
:101DE00000AFF860B9607A603B60FB683B633B6BB7
:101DF000002B09D14FF0500383F31188BFF36F8F8D
:101E0000BFF34F8FBB61FEE7BB68002B03D13B6B79
:101E10001B6C002B01D1012300E00023002B09D112
:101E20004FF0500383F31188BFF36F8FBFF34F8FD1
:101E3000FB61FEE73B68022B03D13B6BDB6B012BA5
:101E400001D1012300E00023002B09D14FF0500302
:101E500083F31188BFF36F8FBFF34F8F3B62FEE7B1
:101E6000FFF712FCEFF311824FF0500383F3118858
:101E7000BFF36F8FBFF34F8F7A627B617B6ABB6268
:101E80003B6B9A6B3B6BDB6B9A4202D33B68022B3A
:101E900024D13A68B968386B00F016FB3B6B9B6C39
:101EA000B3F1FF3F12D13B6B5B6A002B13D03B6B4E
:101EB0002433184601F06CFD0346002B0BD07B68E1
:101EC000002B08D07B6801221A6004E03B6B9B6CFE
:101ED0005A1C3B6B9A6401237B6301E000237B6304
:101EE000BB6AFB62FB6A83F311887B6B1846383749
:101EF000BD4680BD80B58AB000AF786039607B6830
:101F00003B623B6A002B09D14FF0500383F31188E9
:101F1000BFF36F8FBFF34F8FFB60FEE73B6A1B6C15
:101F2000002B09D04FF0500383F31188BFF36F8F5C
:101F3000BFF34F8F3B61FEE7FFF7A6FBEFF3118284
:101F40004FF0500383F31188BFF36F8FBFF34F8FB0
:101F50007A61BB607B69BB613B6A9A6B3B6ADB6BF6
:101F60009A4224D23B6A9B6B5A1C3B6A9A633B6A37
:101F70009B6CB3F1FF3F12D13B6A5B6A002B13D01D
:101F80003B6A2433184601F003FD0346002B0BD0B7
:101F90003B68002B08D03B6801221A6004E03B6AD2
:101FA0009B6C5A1C3B6A9A6401237B6201E000230C
:101FB0007B62BB69FB61FB6983F311887B6A18460E
:101FC0002837BD4680BD00BF80B58CB000AFF8603B
:101FD000B9607A603B600023FB62FB68BB62BB6A4E
:101FE000002B09D14FF0500383F31188BFF36F8F9B
:101FF000BFF34F8FBB61FEE7BB68002B03D1BB6A09
:102000001B6C002B01D1012300E00023002B09D120
:102010004FF0500383F31188BFF36F8FBFF34F8FDF
:10202000FB61FEE702F078F80346002B02D17B68E3
:10203000002B01D1012300E00023002B09D14FF038
:10204000500383F31188BFF36F8FBFF34F8F3B6251
:10205000FEE7FFF749FABB6A9B6B002B47D0BB6AD0
:10206000DB687B62B968B86A00F09AFA3B68002BBB
:1020700022D1BB6A9B6B5A1EBB6A9A63BB6A1B6800
:10208000002B04D102F066F90246BB6A5A60BB6AB3
:102090001B69002B27D0BB6A1033184601F078FC6F
:1020A0000346012B1FD1494B4FF080521A60BFF3FA
:1020B0004F8FBFF36F8F16E0BB6A7A6ADA60BB6A34
:1020C0005B6A002B0FD0BB6A2433184601F060FC1A
:1020D0000346002B07D03D4B4FF080521A60BFF3F0
:1020E0004F8FBFF36F8FFFF72DFA01236AE07B68F4
:1020F000002B03D1FFF726FA002363E0FB6A002BD5
:1021000006D107F11003184601F00AFD0123FB6216
:10211000FFF718FA01F0B8F8FFF7E6F9BB6A5B6C55
:10212000B3F1FF3F02D1BB6A00225A64BB6A9B6CC9
:10213000B3F1FF3F02D1BB6A00229A64FFF702FAB3
:102140003A1D07F110031146184601F00DFD034634
:10215000002B31D1B86A00F095FA0346002B25D048
:10216000BB6A1B68002B08D1FFF7BEF9BB6A5B682E
:10217000184601F0EFFFFFF7E5F9BB6A24337A68F0
:102180001146184601F010FBB86A00F02FFA01F072
:1021900089F80346002B7FF45CAF0C4B4FF0805264
:1021A0001A60BFF34F8FBFF36F8F52E7B86A00F02A
:1021B0001DFA01F077F84CE7B86A00F017FA01F061
:1021C00071F8002318463037BD4680BD04ED00E0AD
:1021D00080B58CB000AFF860B9607A60FB68BB6214
:1021E000BB6A002B09D14FF0500383F31188BFF372
:1021F0006F8FBFF34F8F7B61FEE7BB68002B03D16E
:10220000BB6A1B6C002B01D1012300E00023002BD3
:1022100009D14FF0500383F31188BFF36F8FBFF3E1
:102220004F8FBB61FEE7FFF72FFAEFF311824FF0FC
:10223000500383F31188BFF36F8FBFF34F8FFA61A1
:102240003B61FB693B62BB6A9B6B002B28D0B96882
:10225000B86A00F0A5F9BB6A9B6B5A1EBB6A9A6309
:10226000BB6A5B6CB3F1FF3F12D1BB6A1B69002BE9
:1022700013D0BB6A1033184601F08AFB0346002BCB
:102280000BD07B68002B08D07B6801221A6004E029
:10229000BB6A5B6C5A1CBB6A5A640123FB6201E097
:1022A0000023FB623B6A7B627B6A83F31188FB6AD3
:1022B00018463037BD4680BD80B58CB000AF786021
:1022C00039607B68BB62BB6A002B09D14FF05003B9
:1022D00083F31188BFF36F8FBFF34F8FFB60FEE76F
:1022E0003B68002B03D1BB6A1B6C002B01D101237F
:1022F00000E00023002B09D14FF0500383F3118835
:10230000BFF36F8FBFF34F8F3B61FEE7BB6A1B6C60
:10231000002B09D14FF0500383F31188BFF36F8F67
:10232000BFF34F8F7B61FEE7FFF7AEF9EFF311824A
:102330004FF0500383F31188BFF36F8FBFF34F8FBC
:10234000BA61BB60BB693B62BB6A9B6B002B0CD064
:10235000BB6ADB68FB613968B86A00F021F9BB6AC7
:10236000FA69DA600123FB6201E00023FB623B6A49
:102370007B627B6A83F31188FB6A18463037BD465F
:1023800080BD00BF80B584B000AF78607B68002B53
:1023900009D14FF0500383F31188BFF36F8FBFF360
:1023A0004F8FBB60FEE7FFF79FF87B689B6BFB607E
:1023B000FFF7C8F8FB6818461037BD4680BD00BF60
:1023C00080B586B000AF78607B687B617B69002B4D
:1023D00009D14FF0500383F31188BFF36F8FBFF320
:1023E0004F8FFB60FEE7FFF77FF87B69DA6B7B6955
:1023F0009B6BD31A3B61FFF7A5F83B69184618376A
:10240000BD4680BD80B485B000AF78607B68002B8E
:1024100009D14FF0500383F31188BFF36F8FBFF3DF
:102420004F8FBB60FEE77B689B6BFB60FB681846C9
:102430001437BD465DF8047B704700BF80B584B09B
:1024400000AF78607B68FB60FB68002B09D14FF020
:10245000500383F31188BFF36F8FBFF34F8FBB60BF
:10246000FEE7F86800F0AAF9F86803F047F900BF42
:102470001037BD4680BD00BF80B483B000AF786028
:102480007B68DB6C18460C37BD465DF8047B7047F3
:1024900080B483B000AF786039607B683A68DA64F2
:1024A00000BF0C37BD465DF8047B704780B483B035
:1024B00000AF78607B6893F8503018460C37BD4603
:1024C0005DF8047B704700BF80B586B000AFF86050
:1024D000B9607A6000237B61FB681B6C002B0DD117
:1024E000FB681B68002B50D1FB685B68184601F045
:1024F000A7FE7861FB6800225A6046E07B68002BEB
:1025000019D1FB689868FB681B6C1A46B96809F01A
:10251000ADFFFB689A68FB681B6C1A44FB689A6005
:10252000FB689A68FB685B689A422ED3FB681A685E
:10253000FB689A6029E0FB68D868FB681B6C1A4648
:10254000B96809F093FFFB68DA68FB681B6C5B42B3
:102550001A44FB68DA60FB68DA68FB681B689A4219
:1025600007D2FB685A68FB681B6C5B421A44FB6825
:10257000DA607B68022B08D1FB689B6B002B04D0D0
:10258000FB689B6B5A1EFB689A63FB689B6B5A1C2B
:10259000FB689A637B6918461837BD4680BD00BF4B
:1025A00080B582B000AF786039607B681B6C002B0F
:1025B00018D07B68DA687B681B6C1A447B68DA6029
:1025C0007B68DA687B685B689A4203D37B681A6829
:1025D0007B68DA607B68D9687B681B6C1A46386850
:1025E00009F044FF00BF0837BD4680BD80B582B00A
:1025F00000AF7860FEF778FF12E07B685B6A002B23
:1026000013D07B682433184601F0C2F90346002B2F
:1026100001D001F007FB7B689B6C5A1E7B689A64B3
:102620007B689B6C002BE8DC00E000BF7B684FF010
:10263000FF329A64FEF786FFFEF756FF12E07B68D2
:102640001B69002B13D07B681033184601F0A0F9EA
:102650000346002B01D001F0E5FA7B685B6C5A1E43
:102660007B685A647B685B6C002BE8DC00E000BF91
:102670007B684FF0FF325A64FEF764FF00BF0837F3
:10268000BD4680BD80B584B000AF7860FEF72CFFFA
:102690007B689B6B002B02D10123FB6001E00023D0
:1026A000FB60FEF74FFFFB6818461037BD4680BD44
:1026B00080B485B000AF78607B68002B09D14FF003
:1026C000500383F31188BFF36F8FBFF34F8FBB604D
:1026D000FEE77B689B6B002B02D10123FB6001E0CE
:1026E0000023FB60FB6818461437BD465DF8047B89
:1026F000704700BF80B584B000AF7860FEF7F4FE8D
:102700007B689A6B7B68DB6B9A4202D10123FB608A
:1027100001E00023FB60FEF715FFFB681846103749
:10272000BD4680BD80B485B000AF78607B68002B6B
:1027300009D14FF0500383F31188BFF36F8FBFF3BC
:102740004F8FBB60FEE77B689A6B7B68DB6B9A42BE
:1027500002D10123FB6001E00023FB60FB68184607
:102760001437BD465DF8047B704700BF80B485B068
:1027700000AF786039600023FB6014E00E4AFB680C
:1027800052F83330002B0BD10B49FB683A6841F803
:102790003320094AFB68DB0013447A685A6005E07D
:1027A000FB680133FB60FB68072BE7D900BF1437D8
:1027B000BD465DF8047B70472C38012080B485B09D
:1027C00000AF78600023FB6010E00D4AFB68DB007F
:1027D00013445A687B689A4205D1094AFB68002174
:1027E00042F8331005E0FB680133FB60FB68072B00
:1027F000EBD900BF1437BD465DF8047B704700BFBE
:102800002C38012080B584B000AF786039607B68D7
:10281000FB60FEF769FEFB685B6CB3F1FF3F02D122
:10282000FB6800225A64FB689B6CB3F1FF3F02D146
:10283000FB6800229A64FEF785FEFB689B6B002B09
:1028400005D1FB6824333968184601F061F8F8684F
:10285000FFF7CCFE00BF1037BD4680BD80B58CB001
:1028600002AFF860B9603B601346FB80FB68002B49
:1028700009D14FF0500383F31188BFF36F8FBFF37B
:102880004F8F3B61FEE73B6B042B09D94FF05003A0
:1028900083F31188BFF36F8FBFF34F8F7B61FEE728
:1028A000FB88B96B184601F013FB38623B6A002BBA
:1028B00078D03B6A1A6BFB8803F18043013B9B0095
:1028C0001344FB61FB6923F00703FB61FB6903F021
:1028D0000703002B09D04FF0500383F31188BFF397
:1028E0006F8FBFF34F8FBB61FEE7FB880093FB6BDD
:1028F0003A6BB968386A01F0E5F93A68F968F8693D
:10290000FEF700FD02463B6A1A607B6B002B02D08B
:102910007B6B3A6A1A60FEF7E7FD314B1B680133A7
:102920002F4A13602F4B1B68002B09D12D4A3B6A9D
:1029300013602B4B1B68012B0FD101F017FA0CE031
:10294000294B1B68002B08D1264B1B68DA6A3B6BAE
:102950009A4202D8234A3B6A1360244B1B68013316
:10296000224A1360214B1A683B6A1A643B6ADB6A8D
:1029700001229A401E4B1B6813431D4A13603B6A99
:10298000DA6A13469B0013449B001A4A1A443B6AB6
:10299000043319461046FEF7E7FE01237B62FEF77B
:1029A000D1FD02E04FF0FF337B627B6A012B11D136
:1029B0000D4B1B68002B0DD00A4B1B68DA6A3B6B72
:1029C0009A4207D20C4B4FF080521A60BFF34F8FE0
:1029D000BFF36F8F7B6A18462837BD4680BD00BFA6
:1029E000780B0020A00A0020840B0020940B00200C
:1029F000800B0020A40A002004ED00E080B584B024
:102A000000AF7860FEF770FD7B68002B02D1344B7D
:102A10001B6800E07B68FB60FB6804331846FEF728
:102A200001FF0346002B15D1FB68DA6A2D491346D6
:102A30009B0013449B000B441B68002B0AD1FB68CE
:102A4000DB6A012202FA03F3DA43274B1B681340C7
:102A5000254A1360FB689B6A002B04D0FB6818337F
:102A60001846FEF7DFFEFB68043319461F48FEF7E1
:102A70007BFE1F4B1B6801331D4A13601D4B1B68F7
:102A800001331C4A1360FEF75DFD1B4B1B68002BD6
:102A900021D0134B1B68FA689A4216D1174B1B685A
:102AA000002B09D04FF0500383F31188BFF36F8FD1
:102AB000BFF34F8FBB60FEE7114B4FF080521A609F
:102AC000BFF34F8FBFF36F8F05E0FEF70DFD01F0F1
:102AD000EDFAFEF737FD00BF1037BD4680BD00BFE1
:102AE000A00A0020A40A0020800B00204C0B00202C
:102AF000600B0020940B0020840B0020980B00201A
:102B000004ED00E080B58AB000AF78603960002342
:102B10007B627B68002B09D14FF0500383F311884F
:102B2000BFF36F8FBFF34F8FFB60FEE73B68002B57
:102B300009D14FF0500383F31188BFF36F8FBFF3B8
:102B40004F8F3B61FEE7324B1B68002B09D04FF0E3
:102B5000500383F31188BFF36F8FBFF34F8F7B61F7
:102B6000FEE700F091FB2B4B1B683B627B681A6809
:102B70003B681344FB617B681A683B6A9A420BD935
:102B80007B681A68FB699A4211D9FA693B6A9A42D2
:102B90000DD901237B620AE07B681A68FB699A42BF
:102BA00003D8FA693B6A9A4201D901237B627B68A8
:102BB000FA691A607B6A002B17D0174B1B68043325
:102BC0001846FEF72FFE0346002B0BD1124B1B6855
:102BD000DB6A012202FA03F3DA43104B1B6813404D
:102BE0000E4A1360F86901F03DF900F05BFBB86133
:102BF000BB69002B07D10A4B4FF080521A60BFF31C
:102C00004F8FBFF36F8F00BF2837BD4680BD00BF19
:102C1000980B00207C0B0020A00A0020800B0020D5
:102C200004ED00E080B586B000AF786000237B61E2
:102C30007B68002B2FD01F4B1B68002B09D04FF057
:102C4000500383F31188BFF36F8FBFF34F8FFB6087
:102C5000FEE700F019FB184B1A687B6813443B61D0
:102C6000164B1B6804331846FEF7DCFD0346002BA9
:102C70000BD1124B1B68DB6A012202FA03F3DA4321
:102C80000F4B1B6813400E4A1360386901F0EAF8D5
:102C900000F008FB78617B69002B07D1094B4FF0EE
:102CA00080521A60BFF34F8FBFF36F8F00BF18378A
:102CB000BD4680BD980B00207C0B0020A00A0020A0
:102CC000800B002004ED00E080B584B000AF786098
:102CD000FEF70AFC7B68002B02D1074B1B6800E063
:102CE0007B68FB60FB68DB6ABB60FEF72BFCBB68A4
:102CF00018461037BD4680BDA00A002080B588B0B8
:102D000000AF7860FEF7C0FCEFF311824FF0500384
:102D100083F31188BFF36F8FBFF34F8FFA60BB60EF
:102D2000FB68BB617B68002B02D1094B1B6800E08C
:102D30007B687B617B69DB6A3B61BB69FB61FB692B
:102D400083F311883B6918462037BD4680BD00BF1C
:102D5000A00A002080B588B000AF786039600023F9
:102D6000FB613B68042B09D94FF0500383F31188B2
:102D7000BFF36F8FBFF34F8FFB60FEE73B68042B01
:102D800001D904233B60FEF7AFFB7B68002B02D127
:102D9000434B1B6800E07B68BB61BB699B6C7B613C
:102DA0007A693B689A4274D03A687B699A420DD935
:102DB0003B4B1B68BA699A420FD0394B1B68DA6AE1
:102DC0003B689A4209D80123FB6106E0344B1B683B
:102DD000BA699A4201D10123FB61BB69DB6A3B619D
:102DE000BB699A6CBB69DB6A9A4202D1BB693A68DB
:102DF000DA62BB693A689A64BB699B69002B04DBA1
:102E00003B68C3F10502BB699A61BB6959693A69BC
:102E100013469B0013449B00224A1344994201D15C
:102E2000012300E00023002B28D0BB69043318469F
:102E3000FEF7F8FC0346002B09D101223B6902FA98
:102E400003F3DA43184B1B681340174A1360BB693E
:102E5000DB6A01229A40144B1B681343124A136029
:102E6000BB69DA6A13469B0013449B000D4A1A445F
:102E7000BB69043319461046FEF776FCFB69012B4B
:102E800007D10A4B4FF080521A60BFF34F8FBFF348
:102E90006F8FFEF757FB00BF2037BD4680BD00BFD8
:102EA000A00A0020A40A0020800B002004ED00E00E
:102EB00080B584B000AF7860FEF716FB7B68002B0E
:102EC00002D1374B1B6800E07B68FB60FB68043372
:102ED0001846FEF7A7FC0346002B15D1FB68DA6AFB
:102EE000304913469B0013449B000B441B68002B86
:102EF0000AD1FB68DB6A012202FA03F3DA432A4BA8
:102F00001B681340284A1360FB689B6A002B04D09F
:102F1000FB6818331846FEF785FCFB680433194636
:102F20002248FEF721FCFEF70DFB1D4B1B68FA68DB
:102F30009A4227D11E4B1B68002B16D01D4B1B68D5
:102F4000002B09D04FF0500383F31188BFF36F8F2C
:102F5000BFF34F8FBB60FEE7174B4FF080521A60F4
:102F6000BFF34F8FBFF36F8F16E0104B1A68134BF0
:102F70001B689A4203D10A4B00221A600CE000F051
:102F800093FB09E00A4B1B68002B05D0FEF7ACFA57
:102F900001F08CF8FEF7D6FA00BF1037BD4680BDB1
:102FA000A00A0020A40A0020800B0020640B00204F
:102FB000840B0020980B002004ED00E0780B00202B
:102FC00080B487B000AF786000237B617B683B6191
:102FD0007B68002B09D14FF0500383F31188BFF3B6
:102FE0006F8FBFF34F8FFB60FEE73B695B690F4A52
:102FF000934201D1012300E00023002B0FD03B6955
:103000009B6A0B4A93420AD03B699B6A002B01D111
:10301000012300E00023002B01D001237B617B69A9
:1030200018461C37BD465DF8047B7047640B0020D2
:10303000380B002080B584B000AF78607B68FB60FF
:103040007B68002B09D14FF0500383F31188BFF345
:103050006F8FBFF34F8FBB60FEE7FB68002B39D04B
:103060001E4B1B68FA689A4234D0FEF73DFAF868A6
:10307000FFF7A6FF0346012B2AD1FB68043318464D
:10308000FEF7D0FBFB68DB6A01229A40144B1B68F9
:103090001343134A1360FB68DA6A13469B00134418
:1030A0009B00104A1A44FB68043319461046FEF789
:1030B0005BFBFB68DA6A094B1B68DB6A9A4207D341
:1030C000094B4FF080521A60BFF34F8FBFF36F8FE1
:1030D000FEF738FA00BF1037BD4680BDA00A0020B9
:1030E000800B0020A40A002004ED00E080B58AB027
:1030F00000AF786000237B627B683B627B68002BBB
:1031000009D14FF0500383F31188BFF36F8FBFF3E2
:103110004F8F3B61FEE7FEF7B7FAEFF311824FF0F6
:10312000500383F31188BFF36F8FBFF34F8F7A6122
:10313000FB607B69BB61386AFFF742FF0346012BE6
:103140002FD11D4B1B68002B25D13B6ADA6A1B4B24
:103150001B68DB6A9A4201D301237B623B6A04331A
:103160001846FEF75FFB3B6ADB6A01229A40144B6C
:103170001B681343124A13603B6ADA6A13469B00CA
:1031800013449B000F4A1A443B6A04331946104605
:10319000FEF7EAFA05E03B6A183319460A48FEF7DB
:1031A000E3FABB69FB61FB6983F311887B6A18460C
:1031B0002837BD4680BD00BF980B0020A00A002024
:1031C000800B0020A40A0020380B002080B588B0B6
:1031D00004AF0023039300230293002301930023F1
:1031E00000930023822218491848FFF737FBF86044
:1031F000FB68012B02D101F087FEF860FB68012B10
:1032000011D14FF0500383F31188BFF36F8FBFF3D9
:103210004F8F7B600E4B01221A600E4B00221A600A
:10322000FEF7E0F80CE0FB68002B09D14FF05003EB
:1032300083F31188BFF36F8FBFF34F8FBB60FEE73F
:1032400000BF1037BD4680BDE4370108913C00083F
:10325000840B00207C0B002080B582B000AF4FF0C3
:10326000500383F31188BFF36F8FBFF34F8F7B60E1
:10327000044B00221A60FEF71DF900BF0837BD4657
:1032800080BD00BF840B002080B400AF044B1B68DE
:103290000133034A136000BFBD465DF8047B7047ED
:1032A000980B002080B584B000AF0023FB603E4B3C
:1032B0001B68002B09D14FF0500383F31188BFF333
:1032C0006F8FBFF34F8F7B60FEE7FEF70DF9364B34
:1032D0001B68013B344A1360334B1B68002B5BD1E6
:1032E000324B1B68002B57D02EE0314BDB68DB687C
:1032F000BB60BB6818331846FEF794FABB6804330A
:103300001846FEF78FFABB68DB6A01229A40294B08
:103310001B681343274A1360BB68DA6A13469B0095
:1033200013449B00244A1A44BB68043319461046D0
:10333000FEF71AFABB68DA6A204B1B68DB6A9A420E
:1033400002D31F4B01221A60194B1B68002BCCD1F2
:103350001C4B1B68002B11D00CE000F0DFF803467B
:10336000002B02D0164B01221A60164B1B68013B42
:10337000144A1360134B1B68002BEED1104B1B68D3
:10338000012B09D10123FB600F4B4FF080521A60D3
:10339000BFF34F8FBFF36F8FFEF7D4F8FB6818466B
:1033A0001037BD4680BD00BF980B0020780B002071
:1033B000380B0020800B0020A40A0020A00A002067
:1033C0008C0B0020880B002004ED00E080B483B05B
:1033D00000AF054B1B687B607B6818460C37BD4609
:1033E0005DF8047B704700BF7C0B002080B582B085
:1033F00000AFFEF749F900237B60044B1B683B607C
:103400003B6818460837BD4680BD00BF7C0B0020D6
:1034100080B400AF034B1B681846BD465DF8047BC3
:10342000704700BF780B002080B586B000AFF86011
:10343000B9607A6000237B6105233B61FFF724FFBD
:10344000304B1B68BA689A4254D33B69013B3B61DD
:103450007B695B01FA68D0183A6913469B001344F4
:103460009B00294A13440122194600F067FD0246D9
:103470007B6913447B613B69002BE6D17B695B016F
:10348000FA68D018214B1B680222194600F056FD3D
:1034900002467B6913447B617B695B01FA68D01843
:1034A0001B4B1B680222194600F048FD02467B694F
:1034B00013447B617B695B01FA681344042215495C
:1034C000184600F03BFD02467B6913447B617B6933
:1034D0005B01FA68134403220F49184600F02EFDE1
:1034E00002467B6913447B617B68002B02D07B68BA
:1034F00000221A60FFF7D6FE7B6918461837BD46D2
:1035000080BD00BF780B0020A40A0020300B0020F3
:10351000340B00204C0B0020640B002080B586B0DB
:1035200000AF00237B61554B1B68002B40F093805C
:10353000534B1B680133524A1360514B1B683B616C
:103540003B69002B1FD14F4B1B681B68002B09D018
:103550004FF0500383F31188BFF36F8FBFF34F8F8A
:103560003B60FEE7474B1B68FB60474B1B68454AC7
:103570001360454AFB681360444B1B680133434AA0
:10358000136000F093FD424B1B683A699A424DD399
:103590003C4B1B681B68002B01D1012300E000237A
:1035A000002B04D03A4B4FF0FF321A603EE0354B0F
:1035B0001B68DB68DB68BB60BB685B687B603A6983
:1035C0007B689A4203D2324A7B6813602EE0BB6864
:1035D00004331846FEF726F9BB689B6A002B04D01B
:1035E000BB6818331846FEF71DF9BB68DB6A012279
:1035F0009A40284B1B681343264A1360BB68DA6A5B
:1036000013469B0013449B00234A1A44BB680433AF
:1036100019461046FEF7A8F8BB68DA6A1F4B1B680C
:10362000DB6A9A42B4D301237B61B1E71B4B1B6871
:10363000DA6A194913469B0013449B000B441B682C
:10364000012B01D901237B61154B1B68002B09D18C
:10365000FDF732FA06E0124B1B680133104A136083
:10366000FDF72AFA0F4B1B68002B01D001237B6169
:103670007B6918461837BD4680BD00BF980B0020F7
:103680007C0B0020300B0020340B0020900B00201E
:10369000B8000020800B0020A40A0020A00A00200F
:1036A000880B00208C0B002080B586B000AF384B13
:1036B0001B68002B03D0374B01221A6063E0354BA7
:1036C00000221A60344B1B681A68334B1B681B6B53
:1036D0009A4208D8304B1A682F4B1B68343319466E
:1036E0001046FDF705FA2C4B1B681B6B14222B4967
:1036F00018460AF013F90346002B08D0264B1A6827
:10370000254B1B68343319461046FDF7F1F9244B5D
:103710001B68BB60BB68B3FA83F3FB71FB79C3F131
:103720001F033B611F493A6913469B0013449B00EA
:103730000B441B68002B09D14FF0500383F3118811
:10374000BFF36F8FBFF34F8F7B61FEE73A6913467C
:103750009B0013449B00134A1344FB60FB685B68A7
:103760005A68FB685A60FB685A68FB6808339A42DB
:1037700004D1FB685B685A68FB685A60FB685B6849
:10378000DB68054A136000BF1837BD4680BD00BF27
:10379000980B00208C0B0020A00A0020EC370108B9
:1037A000800B0020A40A002080B584B000AF7860B0
:1037B00039607B68002B09D14FF0500383F31188E7
:1037C000BFF36F8FBFF34F8FBB60FEE7194B1B68D2
:1037D000183319467868FDF7EBFF164B1B68043366
:1037E0001846FEF71FF80346002B0BD1114B1B6840
:1037F000DB6A012202FA03F3DA430F4B1B68134022
:103800000D4A13603B68B3F1FF3F07D1094B1B68BA
:10381000043319460948FDF7A7FF07E0084B1A686B
:103820003B681344FB60F86800F01CFB00BF1037D6
:10383000BD4680BDA00A0020800B0020640B002044
:103840007C0B002080B588B000AFF860B9607A606A
:10385000FB68002B09D14FF0500383F31188BFF3AD
:103860006F8FBFF34F8F7B61FEE7244B1B68002BEC
:1038700009D14FF0500383F31188BFF36F8FBFF36B
:103880004F8FBB61FEE71E4B1B68BA6842F00042D7
:103890009A611B4B1B6818331946F868FDF764FFE3
:1038A000174B1B6804331846FDF7BCFF0346002B7B
:1038B0000BD1134B1B68DB6A012202FA03F3DA43D4
:1038C000104B1B6813400F4A13607B68B3F1FF3F36
:1038D00007D10B4B1B68043319460B48FDF744FF17
:1038E00007E00A4B1A687B681344FB61F86900F033
:1038F000B9FA00BF2037BD4680BD00BF980B00203D
:10390000A00A0020800B0020640B00207C0B00200C
:1039100080B584B000AF786039607B68002B09D136
:103920004FF0500383F31188BFF36F8FBFF34F8FB6
:10393000BB60FEE7134B1B68183319467868FDF728
:1039400013FF104B1B6804331846FDF76BFF03464B
:10395000002B0BD10B4B1B68DB6A012202FA03F32D
:10396000DA43094B1B681340074A1360074B1A6878
:103970003B681344FB60F86800F074FA00BF10372E
:10398000BD4680BDA00A0020800B00207C0B0020DB
:1039900080B586B000AF78607B68DB68DB683B6130
:1039A0003B69002B09D14FF0500383F31188BFF31B
:1039B0006F8FBFF34F8FFB60FEE73B6918331846EC
:1039C000FDF730FF1D4B1B68002B1CD13B690433F6
:1039D0001846FDF727FF3B69DB6A01229A40184B26
:1039E0001B681343164A13603B69DA6A13469B004F
:1039F00013449B00134A1A443B690433194610468A
:103A0000FDF7B2FE05E03B69183319460E48FDF795
:103A1000ABFE3B69DA6A0D4B1B68DB6A9A4205D93B
:103A200001237B610A4B01221A6001E000237B61C4
:103A30007B6918461837BD4680BD00BF980B002033
:103A4000800B0020A40A0020380B0020A00A0020D0
:103A50008C0B002080B586B000AF786039602B4BAE
:103A60001B68002B09D14FF0500383F31188BFF37B
:103A70006F8FBFF34F8FBB60FEE73B6843F00042A0
:103A80007B681A607B68DB683B613B69002B09D16E
:103A90004FF0500383F31188BFF36F8FBFF34F8F45
:103AA000FB60FEE77868FDF7BDFE3B69043318460E
:103AB000FDF7B8FE3B69DB6A01229A40144B1B6894
:103AC0001343134A13603B69DA6A13469B0013449D
:103AD0009B00104A1A443B69043319461046FDF70F
:103AE00043FE3B69DA6A0C4B1B68DB6A9A4205D9D4
:103AF00001237B61094B01221A6001E000237B61F5
:103B00007B6918461837BD4680BD00BF980B002062
:103B1000800B0020A40A0020A00A00208C0B0020AB
:103B200080B485B000AF78607B68002B09D14FF07E
:103B3000500383F31188BFF36F8FBFF34F8FFB6088
:103B4000FEE7074B1A687B681A60064B1A687B68A9
:103B50005A6000BF1437BD465DF8047B704700BF54
:103B6000900B00207C0B002080B586B000AF786001
:103B700039607B68002B09D14FF0500383F3118823
:103B8000BFF36F8FBFF34F8FBB60FEE73B68002B27
:103B900009D14FF0500383F31188BFF36F8FBFF348
:103BA0004F8FFB60FEE7FDF79FFC1C4B1B683B61E2
:103BB0003B681B68B3F1FF3F02D100237B6126E025
:103BC0007B681A68164B1B689A4207D07B685A6854
:103BD0003B699A4202D801237B6118E07B685B68ED
:103BE0003A69D21A3B681B689A420ED23B681A683F
:103BF0007B6859683B69CB1A1A443B681A6078683D
:103C0000FFF78EFF00237B6101E001237B61FDF75D
:103C100099FC7B6918461837BD4680BD7C0B002097
:103C2000900B002080B400AF034B01221A6000BF4C
:103C3000BD465DF8047B70478C0B002080B485B0D6
:103C400000AF78607B68002B05D07B68BB60BB68E9
:103C50005B6CFB6001E00023FB60FB6818461437D7
:103C6000BD465DF8047B704780B485B000AF7860D6
:103C700039607B68002B04D07B68FB60FB683A6886
:103C80005A6400BF1437BD465DF8047B704700BF1F
:103C900080B582B000AF786000F0A8F8074B1B68D1
:103CA000012B07D9064B4FF080521A60BFF34F8F9C
:103CB000BFF36F8FFCF714FFEEE700BFA40A0020EC
:103CC00004ED00E080B586B000AFF860B9607A60BE
:103CD0003B6000237B6112E0BA687B69134419786A
:103CE000FA687B69134434330A461A70BA687B69F0
:103CF00013441B78002B06D07B6901337B617B6901
:103D0000092BE9D900E000BFFB68002283F83D20C1
:103D10007B68042B01D904237B60FB687A68DA6234
:103D2000FB687A689A64FB680022DA64FB680433F3
:103D30001846FDF70BFDFB6818331846FDF706FD26
:103D4000FB68FA681A617B68C3F10502FB689A6137
:103D5000FB68FA685A62FB6800221A65FB68002259
:103D600083F8542000BF1837BD4680BD80B582B0AF
:103D700000AF00237B600CE07A6813469B0013447D
:103D80009B00124A13441846FDF7C0FC7B680133C0
:103D90007B607B68042BEFD90D48FDF7B7FC0D481D
:103DA000FDF7B4FC0C48FDF7B1FC0C48FDF7AEFC88
:103DB0000B48FDF7ABFC0B4B054A1A600A4B054A52
:103DC0001A6000BF0837BD4680BD00BFA40A0020AE
:103DD000080B00201C0B0020380B00204C0B00208F
:103DE000640B0020300B0020340B002080B582B023
:103DF00000AF28E0FFF748FA174B1B68002B0CBFF9
:103E000001230023DBB27B60FFF74CFA7B68002BB9
:103E100019D1FDF769FB104BDB68DB683B603B6841
:103E200004331846FDF7FEFC0C4B1B68013B0B4AA4
:103E300013600B4B1B68013B094A1360FDF782FBC3
:103E4000386800F023F9064B1B68002BD2D100BF65
:103E50000837BD4680BD00BF4C0B0020780B00200A
:103E6000600B002080B582B000AF7860134B1B68F8
:103E70007A685A60124B1B687A689A4209D2114BD1
:103E80001A680E4B1B68043319461046FDF790FC68
:103E900010E00D4B1A68094B1B6804331946104695
:103EA000FDF786FC094B1B687A689A4202D2074AE2
:103EB0007B68136000BF0837BD4680BDA00A0020A4
:103EC0007C0B0020340B0020300B0020B8000020B9
:103ED00080B584B000AF03463960FB803B68002B9F
:103EE00006D1FB889B00184601F042FB034600E028
:103EF0003B68BB60BB68002B0ED0582001F038FB3C
:103F0000F860FB68002B03D0FB68BA681A6305E011
:103F1000B86801F0F3FB01E00023FB60FB68002BB5
:103F200007D0FB68186BFB889B001A46A52109F097
:103F300027FDFB6818461037BD4680BD90B58BB095
:103F400000AFF860B9601346FB7100237B62BB6869
:103F50001B68002B78D0BB683B623B6A5B685A6881
:103F60003B6A5A603B6A5A683B6A08339A4204D1FA
:103F70003B6A5B685A683B6A5A603B6A5B68DB680D
:103F8000FB61BB68BB61BB695B685A68BB695A600F
:103F9000BB695A68BB6908339A4204D1BB695B6844
:103FA0005A68BB695A60BB695B68DB687B617B6A86
:103FB0005B01FA6813447A691A607B6A5B01FA68EC
:103FC00013447A6934325A607B6A5B01FA6813449D
:103FD0007A69126C9A607B6A5B01FA681344FA7919
:103FE0001A737B6A5B01FA6813447A69D26A1A61B0
:103FF000FB79032B09D17B699B6A002B05D07B6A77
:104000005B01FA68134402221A737B6A5B01FA6847
:1040100013447A69926C5A617B6A5B01FA681344B3
:1040200000229A617B6A5B01FA68D4187B691B6B7A
:10403000184600F00FF80346A3837B6A01337B62C6
:104040007A69FB699A429CD17B6A18462C37BD4637
:1040500090BD00BF80B485B000AF78600023FB60E6
:1040600005E07B6801337B60FB680133FB607B68A4
:104070001B78A52BF5D0FB689B08FB60FB689BB207
:1040800018461437BD465DF8047B704780B582B092
:1040900000AF78607B681B6B184601F02FFB7868D7
:1040A00001F02CFB00BF0837BD4680BD80B483B053
:1040B00000AF0F4B1B681B68002B01D1012300E0F0
:1040C0000023002B04D00B4B4FF0FF321A6008E0A6
:1040D000074B1B68DB68DB687B607B685B68054AB5
:1040E000136000BF0C37BD465DF8047B704700BF0E
:1040F000300B0020B800002080B483B000AF054B27
:104100001B687B607B6818460C37BD465DF8047BF6
:10411000704700BFA00A002080B483B000AF0B4BF3
:104120001B68002B02D101237B6008E0084B1B6851
:10413000002B02D102237B6001E000237B607B68BF
:1041400018460C37BD465DF8047B7047840B002091
:10415000980B002080B584B000AF78607B68FB606E
:104160007B68002B62D0FB68DA6A324B1B68DB6A23
:104170009A425BD2FB689B69002B06DB2D4B1B68C8
:10418000DB6AC3F10502FB689A61FB685969FB6849
:10419000DA6A13469B0013449B00274A1344994252
:1041A00001D1012300E00023002B3AD0FB68043347
:1041B0001846FDF737FB0346002B15D1FB68DA6A7A
:1041C0001D4913469B0013449B000B441B68002BA6
:1041D0000AD1FB68DB6A012202FA03F3DA43174BC8
:1041E0001B681340154A1360124B1B68DA6AFB68A0
:1041F000DA62FB68DB6A01229A40104B1B681343AA
:104200000E4A1360FB68DA6A13469B0013449B0056
:10421000094A1A44FB68043319461046FDF7A4FA0C
:1042200004E0044B1B68DA6AFB68DA6200BF1037EF
:10423000BD4680BDA00A0020A40A0020800B0020FB
:1042400080B586B000AF78607B683B6100237B61FE
:104250007B68002B5DD03B69DB6C002B09D14FF0F4
:10426000500383F31188BFF36F8FBFF34F8FFB6051
:10427000FEE73B69DB6C5A1E3B69DA643B69DA6A2C
:104280003B699B6C9A4244D03B69DB6C002B40D16C
:104290003B6904331846FDF7C5FA0346002B15D1D8
:1042A0003B69DA6A1D4913469B0013449B000B448B
:1042B0001B68002B0AD13B69DB6A012202FA03F377
:1042C000DA43174B1B681340154A13603B699A6C1D
:1042D0003B69DA623B69DB6AC3F105023B699A61BB
:1042E0003B69DB6A01229A400D4B1B6813430C4A61
:1042F00013603B69DA6A13469B0013449B00074A2C
:104300001A443B69043319461046FDF72DFA012380
:104310007B617B6918461837BD4680BDA40A002022
:10432000800B002080B483B000AF094B1B689B69F1
:104330007B60074B1B68064A1268D26AC2F105020D
:104340009A617B6818460C37BD465DF8047B704760
:10435000A00A002080B400AF074B1B68002B04D0DC
:10436000054B1B68DA6C0132DA64034B1B68184694
:10437000BD465DF8047B7047A00A002080B584B07C
:1043800000AF78603960FDF7AFF8314B1B681B6DEB
:10439000002B38D12E4B1B68012283F854203B6838
:1043A000002B30D02A4B1B6804331846FDF73AFA2D
:1043B0000346002B0BD1264B1B68DB6A012202FA55
:1043C00003F3DA43234B1B681340224A13603B6814
:1043D000B3F1FF3F07D11E4B1B68043319461E483B
:1043E000FDF7C2F907E01D4B1A683B681344FB60F8
:1043F000F868FFF737FD1A4B4FF080521A60BFF391
:104400004F8FBFF36F8FFDF79DF8FDF76DF8104BE1
:104410001B681B6DBB60BB68002B0CD07B68002B3E
:1044200004D00B4B1B6800221A6504E0084B1B6884
:104430001A6D013A1A65064B1B68002283F8542056
:10444000FDF780F8BB6818461037BD4680BD00BF39
:10445000A00A0020800B0020640B00207C0B0020B1
:1044600004ED00E080B586B000AFF860B9607A6016
:104470003B60FDF739F8394B1B6893F85430DBB2D9
:10448000022B3FD0354B1B68196DFA68D2430A40A6
:104490001A65324B1B68012283F854203B68002BBD
:1044A00030D02E4B1B6804331846FDF7BBF903468A
:1044B000002B0BD1294B1B68DB6A012202FA03F3A4
:1044C000DA43274B1B681340254A13603B68B3F15E
:1044D000FF3F07D1214B1B68043319462148FDF7E4
:1044E00043F907E0204B1A683B6813443B61386985
:1044F000FFF7B8FC1D4B4FF080521A60BFF34F8F8F
:10450000BFF36F8FFDF71EF8FCF7EEFF7B68002B03
:1045100004D0124B1B681A6D7B681A600F4B1B6826
:1045200093F85430DBB2012B02D100237B6108E009
:104530000A4B1B68196DBA68D2430A401A650123F9
:104540007B61064B1B68002283F85420FCF7FAFFBE
:104550007B6918461837BD4680BD00BFA00A002001
:10456000800B0020640B00207C0B002004ED00E099
:1045700080B58AB000AFF860B9601346FB710123C3
:104580007B62FB68002B09D14FF0500383F3118845
:10459000BFF36F8FBFF34F8F7B61FEE7FB683B621A
:1045A000FCF7A2FF3B6A93F85430FB773B6A022288
:1045B00083F85420FB79042B27D801A252F823F06A
:1045C0000B460008D5450008E3450008EF45000804
:1045D000F74500083B6A1A6DBB681A433B6A1A65C7
:1045E00013E03B6A1B6D5A1C3B6A1A650DE03B6A7F
:1045F000BA681A6509E0FB7F022B03D03B6ABA68F0
:104600001A6501E000237B6200BFFB7F012B38D1DC
:104610003B6A04331846FDF705F93B6ADB6A012261
:104620009A401B4B1B681343194A13603B6ADA6AB2
:1046300013469B0013449B00164A1A443B6A0433FA
:1046400019461046FDF790F83B6A9B6A002B09D08B
:104650004FF0500383F31188BFF36F8FBFF34F8F79
:10466000BB61FEE73B6ADA6A0B4B1B68DB6A9A4266
:1046700007D90A4B4FF080521A60BFF34F8FBFF338
:104680006F8FFCF75FFF7B6A18462837BD4680BDF9
:10469000800B0020A40A0020A00A002004ED00E006
:1046A00080B58EB000AFF860B9603B601346FB7117
:1046B00001237B63FB68002B09D14FF0500383F388
:1046C0001188BFF36F8FBFF34F8FBB61FEE7FCF71D
:1046D000DBFFFB683B63EFF311824FF0500383F382
:1046E0001188BFF36F8FBFF34F8FFA617B61FB6956
:1046F000BB623B6B93F8543087F827303B6B022248
:1047000083F85420FB79042B28D801A252F823F017
:104710005D47000825470008334700083F47000869
:10472000474700083B6B1A6DBB681A433B6B1A6521
:1047300014E03B6B1B6D5A1C3B6B1A650EE03B6B28
:10474000BA681A650AE097F82730022B03D03B6B52
:10475000BA681A6501E000237B6300BF97F8273031
:10476000012B41D13B6B9B6A002B09D04FF05003CA
:1047700083F31188BFF36F8FBFF34F8FFB62FEE7A8
:104780001E4B1B68002B1CD13B6B04331846FDF7F6
:1047900049F83B6BDB6A01229A40194B1B681343B3
:1047A000174A13603B6BDA6A13469B0013449B0065
:1047B000144A1A443B6B043319461046FCF7D4FFE5
:1047C00005E03B6B183319460F48FCF7CDFF3B6BF8
:1047D000DA6A0E4B1B68DB6A9A4205D93B68002BEC
:1047E00002D03B6801221A60BB6A3B623B6A83F3DA
:1047F00011887B6B18463837BD4680BD980B00206A
:10480000800B0020A40A0020380B0020A00A002002
:1048100080B58AB000AF786039607B68002B09D121
:104820004FF0500383F31188BFF36F8FBFF34F8FA7
:10483000FB60FEE7FCF728FF7B687B62EFF31182E9
:104840004FF0500383F31188BFF36F8FBFF34F8F87
:104850003A61BB603B69FB617B6A93F85430FB763D
:104860007B6A022283F854207B6A1B6D5A1C7B6A88
:104870001A65FB7E012B41D17B6A9B6A002B09D014
:104880004FF0500383F31188BFF36F8FBFF34F8F47
:104890003B62FEE71E4B1B68002B1CD17B6A043376
:1048A0001846FCF7BFFF7B6ADB6A01229A40194B6E
:1048B0001B681343174A13607B6ADA6A13469B002E
:1048C00013449B00144A1A447B6A04331946104669
:1048D000FCF74AFF05E07B6A183319460F48FCF7DE
:1048E00043FF7B6ADA6A0E4B1B68DB6A9A4205D982
:1048F0003B68002B02D03B6801221A60FB697B6198
:104900007B6983F3118800BF2837BD4680BD00BF97
:10491000980B0020800B0020A40A0020380B0020F8
:10492000A00A002080B582B000AF1C2000F020FE5D
:1049300078607B68002B07D07B6800221A607B6858
:1049400004331846FCF7E2FE7B6818460837BD467C
:1049500080BD00BF80B58CB000AFF860B9607A60F0
:104960003B60FB68BB6200237B627B6803F07F4394
:10497000002B09D04FF0500383F31188BFF36F8FE2
:10498000BFF34F8F3B61FEE77B68002B09D14FF0EF
:10499000500383F31188BFF36F8FBFF34F8F7B6199
:1049A000FEE7FFF7B9FB0346002B02D13B68002B63
:1049B00001D1012300E00023002B09D14FF0500367
:1049C00083F31188BFF36F8FBFF34F8FBB61FEE797
:1049D000FEF75AFCBB6A1B683B62B968F86800F0D6
:1049E00085F93A6ABB681A437B681A407B689A4229
:1049F0000DD13A6ABB681343FB62BB6A1A687B68D5
:104A0000DB431A40BB6A1A6000233B6011E03B683D
:104A1000002B0BD0BB6A181D7B6843F0A0633A687B
:104A20001946FEF70FFF0023FB6202E0BB6A1B681A
:104A3000FB62FEF737FCF8613B68002B2CD0FB696A
:104A4000002B07D1174B4FF080521A60BFF34F8FE6
:104A5000BFF36F8FFFF766FCF862FB6A03F0007329
:104A6000002B15D1FCF740FDBB6A1B68FB62FA6A9C
:104A70007B681A407B689A4206D1BB6A1A687B68D9
:104A8000DB431A40BB6A1A60FCF75CFD01237B62C2
:104A9000FB6A23F07F43FB62FB6A18463037BD4652
:104AA00080BD00BF04ED00E080B590B000AFF860BD
:104AB000B9607A603B60FB687B630023BB630023C3
:104AC0003B63FB68002B09D14FF0500383F311883F
:104AD000BFF36F8FBFF34F8F7B61FEE7BB6803F0BF
:104AE0007F43002B09D04FF0500383F31188BFF3AD
:104AF0006F8FBFF34F8FBB61FEE7BB68002B09D1FF
:104B00004FF0500383F31188BFF36F8FBFF34F8FC4
:104B1000FB61FEE7FFF700FB0346002B02D1BB6CF5
:104B2000002B01D1012300E00023002B09D14FF01D
:104B3000500383F31188BFF36F8FBFF34F8F3B6236
:104B4000FEE7FEF7A1FB7B6B1B68FB623A68B96866
:104B5000F86A00F0A1F9B862BB6A002B0ED0FB6ABC
:104B6000FB630023BB647B68002B26D07B6B1A6839
:104B7000BB68DB431A407B6B1A601EE0BB6C002BEA
:104B800002D1FB6AFB6318E07B68002B03D0BB6B90
:104B900043F08073BB633B68002B03D0BB6B43F0D7
:104BA0008063BB637B6B181DBA68BB6B1343BA6C25
:104BB0001946FEF747FE0023FB63FEF773FB78629E
:104BC000BB6C002B31D07B6A002B07D1194B4FF007
:104BD00080521A60BFF34F8FBFF36F8FFFF7A2FBB6
:104BE000F863FB6B03F00073002B1AD1FCF77CFC1D
:104BF0007B6B1B68FB633A68B968F86B00F04CF993
:104C00000346002B09D07B68002B06D07B6B1A680B
:104C1000BB68DB431A407B6B1A60FCF793FC0023F4
:104C20003B63FB6B23F07F43FB63FB6B1846403712
:104C3000BD4680BD04ED00E080B586B000AF786071
:104C400039607B687B617B68002B09D14FF0500392
:104C500083F31188BFF36F8FBFF34F8FBB60FEE705
:104C60003B6803F07F43002B09D04FF0500383F3E0
:104C70001188BFF36F8FBFF34F8FFB60FEE7FCF728
:104C800033FC7B691B683B617B691A683B68DB43CB
:104C90001A407B691A60FCF755FC3B6918461837C7
:104CA000BD4680BD80B489B000AF78607B68FB6191
:104CB000EFF311824FF0500383F31188BFF36F8F2E
:104CC000BFF34F8F3A61BB603B69BB61FB691B68F7
:104CD0007B61BB69FB60FB6883F311887B691846C5
:104CE0002437BD465DF8047B704700BF80B58EB0A9
:104CF00000AF7860396000233B637B68BB620023B0
:104D0000FB627B68002B09D14FF0500383F31188BD
:104D1000BFF36F8FBFF34F8FFB60FEE73B6803F07D
:104D20007F43002B09D04FF0500383F31188BFF36A
:104D30006F8FBFF34F8F3B61FEE7BB6A04337B622B
:104D40007B6A08333B62FEF79FFA7B6ADB687B6312
:104D5000BB6A1A683B681A43BB6A1A603CE07B6B0B
:104D60005B68FB617B6B1B68BB610023FB62BB69FB
:104D700003F07F437B61BB6923F07F43BB617B69A9
:104D800003F08063002B08D1BB6A1A68BB6913402B
:104D9000002B0BD00123FB6208E0BB6A1A68BB69D9
:104DA0001A40BB699A4201D10123FB62FB6A002BC6
:104DB00010D07B6903F08073002B03D03A6BBB6982
:104DC00013433B63BB6A1B6843F000731946786B5F
:104DD000FEF740FEFB697B637A6B3B6A9A42BED169
:104DE000BB6A1A683B6BDB431A40BB6A1A60FEF76A
:104DF00059FABB6A1B6818463837BD4680BD00BFEC
:104E000080B586B000AF78607B687B617B690433D6
:104E10003B61FEF739FA16E03B69DA683B69083313
:104E20009A4209D14FF0500383F31188BFF36F8F7B
:104E3000BFF34F8FFB60FEE73B69DB684FF000710B
:104E40001846FEF707FE3B691B68002BE4D1786922
:104E500000F054FCFEF726FA00BF1837BD4680BDAF
:104E600080B582B000AF7860396039687868FFF744
:104E70003DFF00BF0837BD4680BD00BF80B582B092
:104E800000AF7860396039687868FFF7D5FE00BFF9
:104E90000837BD4680BD00BF80B487B000AFF86062
:104EA000B9607A6000237B617B68002B07D1FA68C8
:104EB000BB681340002B0AD001237B6107E0FA682E
:104EC000BB681A40BB689A4201D101237B617B69B0
:104ED00018461C37BD465DF8047B704780B485B02A
:104EE00000AF78607B68BB607B68002B02D1002339
:104EF000FB6002E0BB689B69FB60FB6818461437E7
:104F0000BD465DF8047B704780B586B004AF0023D2
:104F10007B6000F0BFFA134B1B68002B0FD00023FF
:104F200003930023029300230193022300930023A1
:104F30004FF482720C490D48FDF790FC78607B6855
:104F4000002B09D14FF0500383F31188BFF36F8F0B
:104F5000BFF34F8F3B60FEE77B6818460837BD46BE
:104F600080BD00BFCC0B00200038010805510008AF
:104F700080B586B000AFF860B9607A603B60BB680E
:104F8000002B02D100237B611CE02C2000F0F0FA02
:104F900078617B69002B15D000F07CFA7B69FA6898
:104FA0001A607B69BA689A617B697A68DA617B69A1
:104FB0003A681A627B693A6A5A627B690433184616
:104FC000FCF7C4FBBB68002B09D14FF0500383F3FF
:104FD0001188BFF36F8FBFF34F8F3B61FEE77B6993
:104FE00018461837BD4680BD80B588B000AFF86060
:104FF000B9607A603B600023FB611A4B1B68002B91
:105000002AD0BB683B617B687B61FB68BB61BB6886
:10501000052B18DCFFF780F80346022B09D1114B52
:10502000186807F110010023BA6AFCF7E3FDF86184
:1050300012E00C4B186807F1100100230022FCF766
:10504000D9FDF86108E0074B186807F1100100234B
:105050003A68FCF7C3FEF861FB6918462037BD4685
:1050600080BD00BFCC0B002080B485B000AF78605D
:105070007B68FB60FB681B6818461437BD465DF80B
:10508000047B704780B588B002AF786039601C4BF4
:105090001B68DB68DB687B617B6904331846FCF7BF
:1050A000C1FB7B69DB69012B21D17B699A697B6834
:1050B000D1187B683A68786900F0B8F80346012B8C
:1050C00015D10023009300237A6800217869FFF747
:1050D0008BFF38613B69002B09D14FF0500383F3FC
:1050E0001188BFF36F8FBFF34F8FFB60FEE77B69C3
:1050F0005B6A7869984700BF1837BD4680BD00BF1E
:10510000C40B002080B584B000AF786007F10803BD
:10511000184600F047F8F860BB681946F86800F0D8
:1051200003F800F0C5F8F1E780B584B000AF78600F
:105130003960FEF7A9F807F10803184600F056F8A1
:10514000F860BB68002B23D13B68002B0AD17A683A
:10515000FB689A4206D8FEF7A5F8F9687868FFF769
:1051600091FF17E00D4B18687A68FB68D31A19464F
:10517000FDF748FBFEF796F80346002B0AD1084BD3
:105180004FF080521A60BFF34F8FBFF36F8F01E073
:10519000FEF788F800BF1037BD4680BDCC0B00205D
:1051A00004ED00E080B485B000AF78600E4B1B6862
:1051B0001B68002B0CBF01230023DBB21A467B685F
:1051C0001A607B681B68002B05D1074B1B68DB68E6
:1051D0001B68FB6001E00023FB60FB681846143786
:1051E000BD465DF8047B7047C40B002080B584B0D9
:1051F00000AF7860FEF7EAF8F8600B4B1B68FA68BE
:105200009A4205D200F0E6F87B6801221A6002E0BB
:105210007B6800221A60044AFB681360FB6818462A
:105220001037BD4680BD00BFD00B002080B586B0D2
:1052300000AFF860B9607A603B6000237B61FB6877
:10524000BA685A60FB68FA681A61BA687B689A4261
:1052500012D87A683B68D21AFB689B699A4202D3DB
:1052600001237B611BE0104B1A68FB68043319466D
:105270001046FCF79DFA12E07A683B689A4206D223
:10528000BA683B689A4202D301237B6107E0074B6F
:105290001A68FB68043319461046FCF789FA7B69E3
:1052A00018461837BD4680BDC80B0020C40B00202F
:1052B00080B58CB002AF7AE0BB68002B77DB3B692E
:1052C0007B627B6A5B69002B04D07B6A04331846DF
:1052D000FCF7A8FA3B1D1846FFF788FF3862BB6849
:1052E000092B63D801A252F823F000BF1553000820
:1052F0001553000815530008AF5300086F530008FA
:10530000A55300081553000815530008AF530008B3
:105310006F530008FA687B6A9B69D118FB683A6A88
:10532000786AFFF783FF0346012B40D17B6A5B6AF3
:10533000786A98477B6ADB69012B38D1FA687B6A07
:105340009B691A440023009300230021786AFFF729
:105350004BFEF861FB69002B29D14FF0500383F31A
:105360001188BFF36F8FBFF34F8F7B61FEE7FA6841
:105370007B6A9A617B6A9B69002B09D14FF05003CD
:1053800083F31188BFF36F8FBFF34F8FBB61FEE7CD
:105390007B6A9A693B6AD1183B6A3A6A786AFFF776
:1053A00045FF04E0786A00F0A9F900E000BF084B6F
:1053B000186807F1080100230022FCF705FE0346E8
:1053C000002B7FF479AF00BF2837BD4680BD00BFFA
:1053D000CC0B002080B588B002AF44E02B4B1B689B
:1053E000DB681B687B61294B1B68DB68DB683B6102
:1053F0003B6904331846FCF715FA3B695B6A386968
:1054000098473B69DB69012B2DD13B699A697B6920
:105410001344FB60FA687B699A420ED93B69FA68CB
:105420005A603B693A691A61184B1A683B69043340
:1054300019461046FCF7BCF915E000230093002341
:105440007A6900213869FFF7CFFDB860BB68002B8F
:1054500009D14FF0500383F31188BFF36F8FBFF36F
:105460004F8F3B60FEE7094B1B681B68002BB5D1D3
:10547000064B1B687B60064B1B68044A1360044A9A
:105480007B68136000BF1837BD4680BDC40B002089
:10549000C80B002080B582B000AFFCF725F81B4B8D
:1054A0001B68002B2BD11A48FCF730F91948FCF780
:1054B0002DF9194B164A1A60184B164A1A60002229
:1054C0000C210A20FCF740FA0246104B1A600F4BE1
:1054D0001B68002B09D14FF0500383F31188BFF3F1
:1054E0006F8FBFF34F8F7B60FEE7084B1B68002B6D
:1054F00005D0064B1B680A491846FDF737F9FCF73B
:1055000021F800BF0837BD4680BD00BFCC0B00208E
:105510009C0B0020B00B0020C40B0020C80B002007
:105520000838010880B584B000AF78607B68FB6004
:10553000FBF7DAFFFB685B69002B14BF0123002334
:10554000DBB2BB60FBF7FEFFBB6818461037BD46F9
:1055500080BD00BF80B485B000AF78607B68FB6021
:10556000FB681B6A18461437BD465DF8047B70471C
:1055700080B58AB000AF78600023FB61FDF784FE40
:10558000594B1B68002B01D100F030F9574B1A68BA
:105590007B681340002B40F08C807B68002B1CD074
:1055A00008227B6813447B607B6803F00703002BB1
:1055B00013D07B6823F0070308337B607B6803F01C
:1055C0000703002B09D04FF0500383F31188BFF37A
:1055D0006F8FBFF34F8FFB60FEE77B68002B68D0B7
:1055E000434B1B687A689A4263D8424B3B62414BFB
:1055F0001B687B6204E07B6A3B627B6A1B687B62A0
:105600007B6A5A687B689A4203D27B6A1B68002BCC
:10561000F1D1354B1B687A6A9A424AD03B6A1B68C3
:1056200008221344FB617B6A1A683B6A1A607B6A32
:105630005A687B68D21A08235B009A421ED97A6A9C
:105640007B6813447B617B6903F00703002B09D05F
:105650004FF0500383F31188BFF36F8FBFF34F8F69
:10566000BB61FEE77B6A5A687B68D21A7B695A6025
:105670007B6A7A685A60786900F01AF91C4B1A68DC
:105680007B6A5B68D31A1A4A1360194B1A681A4B63
:105690001B689A4203D2164B1B68174A13607B6A39
:1056A0005A68124B1B681A437B6A5A607B6A002255
:1056B0001A60FDF7F7FDFB69002B01D1FBF702FA39
:1056C000FB6903F00703002B09D04FF0500383F36D
:1056D0001188BFF36F8FBFF34F8F3B61FEE7FB690C
:1056E00018462837BD4680BDDC370120E837012049
:1056F000E0370120D4370120E437012080B586B09F
:1057000000AF78607B687B617B68002B46D0082304
:105710005B427A6913447B617B693B613B695A68F0
:10572000204B1B681340002B09D14FF0500383F32B
:105730001188BFF36F8FBFF34F8FBB60FEE73B69EC
:105740001B68002B09D04FF0500383F31188BFF37F
:105750006F8FBFF34F8FFB60FEE73B695A68114BB9
:105760001B681340002B19D03B691B68002B15D117
:105770003B695A680B4B1B68DB431A403B695A6014
:10578000FDF782FD3B695A68074B1B681344064AC4
:105790001360386900F08CF8FDF784FD00BF1837FE
:1057A000BD4680BDE8370120E037012080B400AF5E
:1057B000034B1B681846BD465DF8047B704700BF6D
:1057C000E037012080B400AF034B1B681846BD468C
:1057D0005DF8047B704700BFE437012080B400AF60
:1057E00000BFBD465DF8047B704700BF80B485B044
:1057F00000AF4FF49633BB60274BFB60FB6803F0B0
:105800000703002B0CD0FB680733FB60FB6823F019
:105810000703FB60BA68FB68D31A1F4A1344BB60D6
:10582000FB687B601D4A7B6813601C4B00225A603A
:105830007A68BB681344FB600822FB689B1AFB6014
:10584000FB6823F00703FB60FB68154A1360144BE9
:105850001B6800225A60124B1B6800221A607B688A
:105860003B603B68FA68D21A3B685A600C4B1A6876
:105870003B681A603B685B680A4A13603B685B6878
:10588000094A1360094B4FF000421A6000BF1437F9
:10589000BD465DF8047B7047D40B0020D43701204F
:1058A000DC370120E4370120E0370120E837012010
:1058B00080B485B000AF7860284BFB6002E0FB68E5
:1058C0001B68FB60FB681A687B689A42F7D3FB6829
:1058D000BB60FB685B68BA681A447B689A4208D16F
:1058E000FB685A687B685B681A44FB685A60FB680F
:1058F0007B607B68BB607B685B68BA681A44FB6846
:105900001B689A4218D1FB681A68154B1B689A42AB
:105910000DD07B685A68FB681B685B681A447B681B
:105920005A60FB681B681A687B681A6008E00C4BB9
:105930001A687B681A6003E0FB681A687B681A6063
:10594000FA687B689A4202D0FB687A681A6000BFE6
:105950001437BD465DF8047B704700BFD437012083
:10596000DC37012080B500AF01214FF4804003F007
:105970009BFC00214FF4804003F096FC00BF80BDEB
:1059800080B483B000AF0346FB71044AFB79136017
:1059900000BF0C37BD465DF8047B704700380140FE
:1059A00090B484B000AF03460A46FB711346BB7146
:1059B0000023FB60BB7903F003039B000F2202FA74
:1059C00003F3FB601649BB799B08DBB21846144A07
:1059D000BB799B08DBB2023352F82320FB68DB4320
:1059E0001A40831C41F823200D48BB799B08DBB289
:1059F0001C460B4ABB799B08DBB2023352F82320CA
:105A0000F979BB7903F003039B0001FA03F31A430E
:105A1000A31C40F8232000BF1037BD4690BC704740
:105A20000038014080B483B000AF7860044A7B68DE
:105A3000136000BF0C37BD465DF8047B704700BFA4
:105A4000DC00274280B483B000AF0346FB71044AF8
:105A5000FB79136000BF0C37BD465DF8047B7047CF
:105A60000004274280B483B000AF0023FB71094BD0
:105A70001B6A03F48073002B02D00123FB7101E049
:105A80000023FB71FB7918460C37BD465DF8047B9B
:105A9000704700BF0038014080B483B000AF786029
:105AA000064A7B6843F0BF6343F40033D36000BF12
:105AB0000C37BD465DF8047B704700BF00ED00E089
:105AC00080B485B000AF78600023FB730023BB7304
:105AD0000F237B737B68DB78002B38D0274BDB6888
:105AE000DB4303F4E0631B0AFB73FB7BC3F104039A
:105AF000BB737A7BFB7B42FA03F37B737B685B7837
:105B00001A46BB7B02FA03F3FB737B689A787B7BB4
